:100000000C942A000C9447000C9447000C94470071
:100010000C9447000C9447000C9447000C94470044
:100020000C9447000C9447000C9447000C94470034
:100030000C9447000C9447000C9447000C94470024
:100040000C9447000C9447000C9447000C94470014
:100050000C94470011241FBECFE5D8E0DEBFCDBF12
:1000600010E0A0E6B0E0E2EAF0E002C005900D92F8
:10007000A636B107D9F710E0A6E6B0E001C01D92A0
:10008000A636B107E1F70E944E000C944F000C9485
:10009000000008950895089508950895FFCFF894F5
:0200A000FFCF90
:0600A20000010000000057
:00000001FF
