S01C000054696D6572735F5374617469635F64657369676E2E73726563F4
S11300000C942A000C9458000C947F000C94A600C5
S11300100C94CD000C94F4000C941B010C9442013C
S11300200C9469010C9490010C94B7010C94DE01BA
S11300300C9405020C942C020C9453020C947A0236
S11300400C94A1020C94C8020C94EF020C941603B5
S11300500C943D0311241FBECFE5D8E0DEBFCDBF15
S113006010E0A0E6B0E0ECEAFBE002C005900D92DF
S1130070A636B107D9F710E0A6E6B0E001C01D929C
S1130080A139B107E1F70E94D3050C94D4050C946F
S113009000008FB780688FBF08958BB780628BBFD5
S11300A084B7806484BF08958FB78F778FBF089516
S11300B01F920F920FB60F9211242F933F934F93D9
S11300C05F936F937F938F939F93AF93BF93EF93BC
S11300D0FF93E0917F00F09180000995FF91EF91EB
S11300E0BF91AF919F918F917F916F915F914F914C
S11300F03F912F910F900FBE0F901F9018951F9254
S11301000F920FB60F9211242F933F934F935F9347
S11301106F937F938F939F93AF93BF93EF93FF93CB
S1130120E0918700F09188000995FF91EF91BF91CC
S1130130AF919F918F917F916F915F914F913F917B
S11301402F910F900FBE0F901F9018951F920F9232
S11301500FB60F9211242F933F934F935F936F9396
S11301607F938F939F93AF93BF93EF93FF93E0910C
S11301707500F09176000995FF91EF91BF91AF91D1
S11301809F918F917F916F915F914F913F912F91AB
S11301900F900FBE0F901F9018951F920F920FB6DD
S11301A00F9211242F933F934F935F936F937F93F9
S11301B08F939F93AF93BF93EF93FF93E0918D0041
S11301C0F0918E000995FF91EF91BF91AF919F91AE
S11301D08F917F916F915F914F913F912F910F90EC
S11301E00FBE0F901F9018951F920F920FB60F928B
S11301F011242F933F934F935F936F937F938F9328
S11302009F93AF93BF93EF93FF93E0916B00F091B3
S11302106C000995FF91EF91BF91AF919F918F91E0
S11302207F916F915F914F913F912F910F900FBEEE
S11302300F901F9018951F920F920FB60F921124D2
S11302402F933F934F935F936F937F938F939F93DA
S1130250AF93BF93EF93FF93E0918900F0918A00ED
S11302600995FF91EF91BF91AF919F918F917F91EC
S11302706F915F914F913F912F910F900FBE0F900F
S11302801F9018951F920F920FB60F9211242F935F
S11302903F934F935F936F937F938F939F93AF930A
S11302A0BF93EF93FF93E0917100F0917200099571
S11302B0FF91EF91BF91AF919F918F917F916F913A
S11302C05F914F913F912F910F900FBE0F901F9010
S11302D018951F920F920FB60F9211242F933F93EC
S11302E04F935F936F937F938F939F93AF93BF933A
S11302F0EF93FF93E0916F00F09170000995FF91E7
S1130300EF91BF91AF919F918F917F916F915F9189
S11303104F913F912F910F900FBE0F901F90189502
S11303201F920F920FB60F9211242F933F934F9366
S11303305F936F937F938F939F93AF93BF93EF9349
S1130340FF93E0918B00F0918C000995FF91EF9160
S1130350BF91AF919F918F917F916F915F914F91D9
S11303603F912F910F900FBE0F901F9018951F92E1
S11303700F920FB60F9211242F933F934F935F93D5
S11303806F937F938F939F93AF93BF93EF93FF9359
S1130390E0918300F09184000995FF91EF91BF9162
S11303A0AF919F918F917F916F915F914F913F9109
S11303B02F910F900FBE0F901F9018951F920F92C0
S11303C00FB60F9211242F933F934F935F936F9324
S11303D07F938F939F93AF93BF93EF93FF93E0919A
S11303E07700F09178000995FF91EF91BF91AF915B
S11303F09F918F917F916F915F914F913F912F9139
S11304000F900FBE0F901F9018951F920F920FB66A
S11304100F9211242F933F934F935F936F937F9386
S11304208F939F93AF93BF93EF93FF93E0917300E8
S1130430F09174000995FF91EF91BF91AF919F9155
S11304408F917F916F915F914F913F912F910F9079
S11304500FBE0F901F9018951F920F920FB60F9218
S113046011242F933F934F935F936F937F938F93B5
S11304709F93AF93BF93EF93FF93E0916900F09143
S11304806A000995FF91EF91BF91AF919F918F9170
S11304907F916F915F914F913F912F910F900FBE7C
S11304A00F901F9018951F920F920FB60F92112460
S11304B02F933F934F935F936F937F938F939F9368
S11304C0AF93BF93EF93FF93E0918500F091860083
S11304D00995FF91EF91BF91AF919F918F917F917A
S11304E06F915F914F913F912F910F900FBE0F909D
S11304F01F9018951F920F920FB60F9211242F93ED
S11305003F934F935F936F937F938F939F93AF9397
S1130510BF93EF93FF93E0918100F09182000995DE
S1130520FF91EF91BF91AF919F918F917F916F91C7
S11305305F914F913F912F910F900FBE0F901F909D
S113054018951F920F920FB60F9211242F933F9379
S11305504F935F936F937F938F939F93AF93BF93C7
S1130560EF93FF93E0917B00F0917C000995FF915C
S1130570EF91BF91AF919F918F917F916F915F9117
S11305804F913F912F910F900FBE0F901F90189590
S11305901F920F920FB60F9211242F933F934F93F4
S11305A05F936F937F938F939F93AF93BF93EF93D7
S11305B0FF93E0917D00F0917E000995FF91EF910A
S11305C0BF91AF919F918F917F916F915F914F9167
S11305D03F912F910F900FBE0F901F9018951F926F
S11305E00F920FB60F9211242F933F934F935F9363
S11305F06F937F938F939F93AF93BF93EF93FF93E7
S1130600E0917900F0917A000995FF91EF91BF9103
S1130610AF919F918F917F916F915F914F913F9196
S11306202F910F900FBE0F901F9018951F920F924D
S11306300FB60F9211242F933F934F935F936F93B1
S11306407F938F939F93AF93BF93EF93FF93E09127
S11306506700F09168000995FF91EF91BF91AF9108
S11306609F918F917F916F915F914F913F912F91C6
S11306700F900FBE0F901F9018951F920F920FB6F8
S11306800F9211242F933F934F935F936F937F9314
S11306908F939F93AF93BF93EF93FF93E0916D007C
S11306A0F0916E000995FF91EF91BF91AF919F91E9
S11306B08F917F916F915F914F913F912F910F9007
S11306C00FBE0F901F901895CF93DF93EC018B8191
S11306D0809366008881813009F448C0813020F01D
S11306E0823009F0D7C090C083B783BF898181303D
S11306F0B9F0813020F0823009F0CDC024C08A8165
S1130700882321F0813009F0C8C004C089B78C7FE8
S113071089BF2CC00E94490089B7816089BF26C067
S113072083B78D6083BF8A81882321F0813009F0EB
S1130730B6C004C089B78C7F89BF05C00E94490038
S113074089B7816089BF83B78C6083BF8A8188231E
S113075021F0813009F0A5C004C089B78C7F89BF1E
S113076005C00E94490089B7816089BF89818130B1
S1130770D9F0813020F0823009F095C02DC01FBC23
S11307801EBC8A81882321F0813009F08EC005C007
S113079089B7837C89BF80E095C00E94490089B7EE
S11307A0846089BF80E08EC08EB59FB587609FBD91
S11307B08EBD8A81882321F0813009F078C005C07C
S11307C089B7837C89BF80E07DC00E94490089B7D6
S11307D0846089BF80E076C08EB59FB586609FBD7A
S11307E08EBD8A81882321F0813009F062C005C062
S11307F089B7837C89BF80E065C00E94490089B7BE
S1130800846089BF80E05EC085B585BD8981882309
S113081021F0813009F04FC011C08A81882321F072
S1130820813009F04AC004C089B78F7389BF32C0D0
S11308300E94490089B7806C89BF2CC082B588604A
S113084082BD8A81813051F0813018F08230B9F54F
S11308500CC089B78F7389BF81E034C00E944900FE
S113086089B7806C89BF81E02DC082B5886082BD64
S11308708A81882319F0813021F505C089B78F73E7
S113088089BF81E01FC00E94490089B7806C89BF7D
S113089081E018C017C081E015C081E013C081E079
S11308A011C081E00FC081E00DC081E00BC081E088
S11308B009C081E007C081E005C081E003C081E098
S11308C001C081E0DF91CF910895813009F44FC0D8
S11308D0813020F0823009F0F3C097C08091660027
S11308E0843021F1853030F4813051F0823009F0C8
S11308F0E9C011C0863029F1873009F0E3C02CC06B
S11309006F3F710508F0E0C083B7816083BF6095D5
S113091062BF80E008956F3F710508F0D7C083B7C8
S1130920826083BF609562BF80E008956F3F710568
S113093008F0CEC083B7836083BF609562BF80E058
S113094008956F3F710508F0C5C083B7846083BF05
S1130950609562BF80E008956F3F710508F0BCC0E8
S113096083B7856083BF609562BF80E008958091FE
S11309706600843031F1853030F4813051F08230BA
S113098009F0ACC012C0863041F1873009F0A6C02E
S113099030C08EB59FB581609FBD8EBD7095619549
S11309A07F4F7DBD6CBD80E008958EB59FB582609C
S11309B09FBD8EBD709561957F4F7DBD6CBD80E000
S11309C008958EB59FB583609FBD8EBD709561956A
S11309D07F4F7DBD6CBD80E008958EB59FB584606A
S11309E09FBD8EBD709561957F4F7DBD6CBD80E0D0
S11309F008958EB59FB585609FBD8EBD7095619538
S1130A007F4F7DBD6CBD80E0089580916600843089
S1130A1079F1853040F48230C9F0833010F58130AB
S1130A2009F05EC008C08630B9F1863058F18730CD
S1130A3009F056C03BC06F3F710508F053C085B53F
S1130A40816085BD609564BD80E008956F3F710548
S1130A5008F04AC085B5826085BD609564BD80E0BC
S1130A60089585B5836085BD609564BD80E0089573
S1130A706F3F7105D8F585B5846085BD609564BD0B
S1130A8080E008956F3F710598F585B5856085BD53
S1130A90609564BD80E008956F3F710558F585B594
S1130AA0866085BD609564BD80E008956F3F7105E3
S1130AB018F585B5876085BD609564BD80E00895AF
S1130AC081E0089580E0089580E0089580E008952D
S1130AD080E0089580E0089580E0089580E008951E
S1130AE080E0089580E0089580E0089580E008950E
S1130AF080E0089580E0089580E00895813051F009
S1130B00813018F0823091F40CC083B7887F83BFA2
S1130B1080E008958EB59FB5887F9FBD8EBD80E02F
S1130B20089585B5887F85BD80E0089581E00895A6
S1130B30813059F0813018F08230C9F40EC088B782
S1130B408170FB01808380E0089588B7869586953F
S1130B508170FB01808380E0089588B78295869533
S1130B60869583708170FB01808380E0089581E025
S1130B700895FB01813051F0813018F0823089F4FE
S1130B800BC082B78083118280E008958CB59DB537
S1130B909183808380E0089584B58083118280E00E
S10F0BA0089581E00895FFCFF894FFCF82
S1090BAC0001000100003D
S9030000FC
